:020000040800F2
:1000000000000320615E0008791000087B100008E2
:100010007D1000087F10000881100008000000001B
:100020000000000000000000000000006143000824
:10003000831000080000000001440008851000083B
:10004000B95E0008B95E0008B95E0008B95E000834
:10005000B95E0008B95E0008B95E0008B95E000824
:10006000B95E0008B95E0008B95E0008B95E000814
:10007000B95E0008B95E0008B95E0008B95E000804
:10008000B95E0008B95E0008B95E0008B95E0008F4
:10009000B95E0008B95E0008B95E0008B95E0008E4
:1000A000B95E0008B95E0008B95E0008B95E0008D4
:1000B000B95E0008B95E0008B95E0008B95E0008C4
:1000C000B95E0008B95E0008B95E0008B95E0008B4
:1000D000B95E0008B95E0008B95E0008B95E0008A4
:1000E000B95E0008B95E0008B95E0008B95E000894
:1000F000B95E0008B95E0008B95E0008B95E000884
:10010000B95E0008B95E0008B95E0008B95E000873
:10011000B95E0008B95E0008B95E0008B95E000863
:10012000B95E0008B95E0008B95E0008B95E000853
:0C013000B95E0008B95E0008B95E000866
:10014000034613F8012B002AFBD1181A0138704717
:1001500001F0FF01102A2BDB10F0070F08D010F878
:10016000013B013A8B422DD010F0070F42B3F6D17C
:10017000F0B441EA012141EA014122F007047FF095
:1001800000070023F0E80256083C85EA010586EAEC
:10019000010685FA47F5A3FA87F586FA47F6A5FA28
:1001A00087F68EB9EED1F0BC01F0FF0102F0070234
:1001B00032B110F8013B013A83EA010313B1F8D1DF
:1001C0000020704701387047002D06BF35460338C0
:1001D000073815F0010F07D1013015F4807F02BFF9
:1001E000013015F4C03F0130F0BC0138704700BF4A
:1001F00053B94AB9002908BF00281CBF4FF0FF318E
:100200004FF0FF3000F00CB8ADF1080C6DE904CEF2
:1002100006F0F6FADDF804E0DDE9022304B07047E9
:10022000704700BF10B5054C237833B9044B13B1A8
:100230000448AFF300800123237010BD6C00002040
:1002400000000000C86A000808B5034B1BB1034951
:100250000348AFF3008008BD0000000070000020DC
:10026000C86A00082DE9F047ACB006460023279382
:10027000289329932A932B932393249325932693AE
:1002800020932193229319931A931B931C931D93EC
:100290001E931F934301654AD358B3F1904F25D065
:1002A00002EB40125268B2F1904F1FD060498B426E
:1002B00050D08A424ED05F498B4257D08A4255D0A7
:1002C0005D498B425ED08A425CD05C498B4201D052
:1002D0008A4216D14FF0B043DA6C42F01002DA6471
:1002E000DB6C03F010030593059B0AE04FF0B0436D
:1002F000DA6C42F00102DA64DB6C03F00103019373
:10030000019B4A4A730102EB4617B7F80880CDF803
:100310009C800125289552F803A027A9504601F09A
:1003200045FDB7F80A90CDF89C90289500242A94B2
:100330007F6827A9384601F039FD224641465046DC
:1003400001F015FE22464946384601F010FE2246CD
:10035000294626E04FF0B043DA6C42F00202DA643C
:10036000DB6C03F002030293029BCAE74FF0B04339
:10037000DA6C42F00402DA64DB6C03F004030393EA
:10038000039BBEE74FF0B043DA6C42F00802DA6438
:10039000DB6C03F008030493049BB2E749000132CD
:1003A000D2B2224B03EB46131B7F9342F6D81F4D6C
:1003B00005EB4615AB8A224A02FB03F3AA6901FB4F
:1003C00002F2B3FBF2F3013B0239EA6806920793AB
:1003D0000024089409910A9480230C9306A803F042
:1003E00041F84FF48053239323A906A803F080F922
:1003F00006A803F067F82094229420A906A803F029
:100400009FFA602319931A941B941D942C69224619
:1004100019A906A803F0C2F806A800F084FE214638
:1004200006A803F0F5F92CB0BDE8F0870C6B0008C6
:100430000004004800080048000C00480010004874
:1004400040420F0070B50446154661B1012919D02C
:100450001F4B03EB44131B691BBB1D4B03EB4413E6
:10046000DB685D6370BD1A48630100EB441601222E
:100470003189C05801F07BFD00227189706801F05C
:1004800076FDE5E71248630100EB4416002231894E
:10049000C05801F06CFD01227189706801F067FDA0
:1004A000D6E7042B07D0082B0BD0094B03EB4413E2
:1004B000DB681D64D6E7064B03EB4413DB689D63E2
:1004C000D0E7034B03EB4413DB68DD63CAE700BFEF
:1004D0000C6B0008104B03EB40131B692BB90E4B40
:1004E00003EB4013DB6859637047042B07D0082BDC
:1004F0000BD0094B03EB4013DB6819647047064BC4
:1005000003EB4013DB6899637047034B03EB401325
:10051000DB68D963704700BF0C6B0008104BD3F841
:10052000FC2022F08072C3F8FC20D3F8FC2042F0BB
:100530008072C3F8FC20A3F55D431A6822F0010223
:100540001A601A6842F001021A6000225A6000BF65
:1005500000BF00BF5B680BB11046704701207047B9
:1005600000ED00E000B587B00023019302930393F0
:100570000493059301910123029301A901F016FC54
:1005800007B05DF804FB00B587B000230193029328
:10059000039304930593019101A901F007FC07B0AF
:1005A0005DF804FB38B5FFF7B9FF1A4C012120466E
:1005B000FFF7D8FF00220121204601F0D8FC44F2C9
:1005C0005064154B5D6801F051FE144BA3FB0023F2
:1005D0009B0C03FB04F4104B5B685B1BA342FAD338
:1005E000012211460B4801F0C2FC14240A4B5D683D
:1005F00001F03CFE094BA3FB00239B0C03FB04F41E
:10060000054B5B685B1BA342FAD301210148FFF74E
:10061000BAFF38BD00080048001000E083DE1B432D
:1006200038B528241A4B5D6801F020FE194BA3FB56
:1006300000239B0C03FB04F4154B5B685B1BA3427C
:10064000FAD30121144801F08BFC40B100240121B0
:10065000114801F085FC0028F9D1204638BD50240E
:100660000B4B5D6801F002FE0A4BA3FB00239B0CC1
:1006700003FB04F4064B5B685B1BA342FAD3012126
:10068000054801F06DFC08B10124E0E7FF24DEE736
:10069000001000E083DE1B4300080048F8B5002688
:1006A00035460DE0C5F10702012393403343DEB226
:1006B0000121174801F054FC0028F9D10135EDB2B1
:1006C000072D23D80121124801F04AFC0028F9D057
:1006D0002824104B5F6801F0C9FD0F4BA3FB0023DA
:1006E0009B0C03FB04F40B4B5B68DB1BA342FAD3AC
:1006F0000121074801F034FC0028D3D1C5F10702DD
:1007000001239340DB435BB21E40D1E73046F8BD86
:1007100000080048001000E083DE1B432DE9F04193
:100720000446FFF73FFFFFF77BFF1A4B1870FFF7F8
:10073000B5FFDFF8748088F80000FFF7AFFF164FB1
:100740003870FFF7ABFF154E3070FFF7A7FF144D61
:100750002870FFF7A3FF82B2124B1A8098F800307E
:1007600039780B443078034429780B449A4201D0FD
:10077000BDE8F08107EE900AF8EE677AC4ED007AE2
:1007800098F8003007EE903AF8EE677AC4ED017AF7
:10079000EEE700BF880000208A0000208E000020C5
:1007A0008F0000208C0000208900002000B587B059
:1007B0000023009301930293039304930593194834
:1007C000194A026043608360C3600361042242618E
:1007D000037643760122C26180F820308362C362CF
:1007E00080F83030436380F8383000F047FE90B92D
:1007F0000E4B009306230193002302937F22039262
:100800000422049205936946064800F083FF28B944
:1008100007B05DF804FB00F088FBE9E700F085FB1A
:10082000F6E700BF900000200000045004006008BC
:1008300000B589B0002303930493059306930793AF
:100840000268114B9A4202D009B05DF804FB4FF0E8
:10085000B043DA6C42F40052DA64DA6C02F400520B
:100860000292029ADA6C42F00402DA64DB6C03F062
:1008700004030193019B022303930323049303A91D
:10088000024801F093FADFE7000004500008004836
:1008900000B585B000F06CFC184802F07BFDFFF756
:1008A00085FF4FF4007303934FF4807302934FF46A
:1008B000004301934FF4806300934FF09043042270
:1008C0000821184600F08CFA0D4800F00DFB40F6A8
:1008D000B8310C4B186803F075FCC8210A4B186836
:1008E00003F070FC0020FFF7BDFC0022114610460B
:1008F000FFF7A8FD012003F003FCFBE73001002017
:100900002C6B00080C0100200401002038B51A4CA3
:10091000204601F0B1F94FF0FF31204600F09CFE77
:10092000204600F0F3FE85B205EB8503DB00134C97
:1009300084FB03241C44E41200F0C8FA214610484A
:1009400000F0D2FA07EE904AF8EEE77A0D4B93EDFD
:10095000007AF4EEC77AF1EE10FA04DD00210846C1
:10096000FFF7B8FD38BDC5F57F610F31C1F38F01C9
:100970000020FFF7AFFDF5E7900000208100088020
:10098000406B00080001002008B52DED028BB0EE91
:10099000408AF0EE608A00F09FFA00F091FAFDEED6
:1009A000E87A17EE902AFDEEC87A17EE901A0348FF
:1009B00000F09AFABDEC028B08BD00BF546B000832
:1009C00010B5084C2046FFF7A9FE94ED000A064B2F
:1009D00083ED000AD4ED010A044BC3ED000AFFF7D2
:1009E000D3FF10BDF400002000010020FC00002017
:1009F00008B50C4B002201210B4803F08FFB0B4B79
:100A000018600B4B002201210A4803F087FB0A4BB8
:100A100018600A4A00210A4803F014FB094B1860C9
:100A200008BD00BFC06B0008C10900080C01002010
:100A30008C6B00080D090008040100209C6B000865
:100A400091080008080100202DE9F0418AB0002437
:100A5000059406940794089409944FF0B043DA6C17
:100A600042F00402DA64DA6C02F004020492049A9E
:100A7000DA6C42F00102DA64DA6C02F001020392ED
:100A8000039ADA6C42F00202DA64DA6C02F00202D3
:100A90000292029ADA6C42F00802DA64DB6C03F02C
:100AA00008030193019B224648F20C714FF09040DD
:100AB00001F05DFA214E22462321304601F057FA1B
:100AC000012505954FF48818CDF8188007941C4F20
:100AD00005A9384601F06AF948F20C7305930695AA
:100AE0000794089405A94FF0904001F05FF9902316
:100AF0000593CDF81880079405A94FF0904001F0B8
:100B000055F9102305930694079405A9384601F07A
:100B10004DF92323059306950794089405A93046BB
:100B200001F044F9032305930694079405A90548A9
:100B300001F03CF90AB0BDE8F08100BF00040048B4
:100B400000080048000C0048104BD3F8FC2022F0AD
:100B50008072C3F8FC20D3F8FC2042F08072C3F806
:100B6000FC20A3F55D431A6822F001021A601A689E
:100B700042F001021A6000225A6000BF00BF00BFAD
:100B80005B680BB1104670470120704700ED00E034
:100B900008B50246034B1988034B186801F0E7F9C2
:100BA00008BD00BF220100202C01002038B5012221
:100BB000164B1988164B186801F0D9F91424154BF7
:100BC0005D6801F053FB144BA3FB00239B0C03FB5C
:100BD00004F4104B5B685B1BA342FAD300220B4B5F
:100BE00019880B4B186801F0C2F93C24094B5D6869
:100BF00001F03CFB084BA3FB00239B0C03FB04F41C
:100C0000044B5B685B1BA342FAD338BD2001002074
:100C10002C010020001000E083DE1B432DE9F0478B
:100C200004460609424B1B78002B3DD0414D00F095
:100C30000102414B1988286801F099F904F0020279
:100C40003E4B1988286801F092F904F004023C4BED
:100C50001988286801F08BF904F00802394B1988CB
:100C6000286801F084F9384C06F00102374B1988E6
:100C7000206801F07CF906F00202354B19882068E3
:100C800001F075F906F00402324B1988206801F072
:100C90006EF906F00802304B1988206801F067F9F8
:100CA000FFF784FFBDE8F087DFF8A0A0264D06F02F
:100CB0000102BAF80010286801F059F9DFF89090A5
:100CC00006F00202B9F80010286801F050F9DFF8C8
:100CD000848006F00402B8F80010286801F047F993
:100CE0001D4F06F008023988286801F040F9FFF727
:100CF0005DFF04F00102BAF80010286801F037F92E
:100D000004F00202B9F80010286801F030F904F08C
:100D10000402B8F80010286801F029F904F008026C
:100D20003988286801F023F9FFF740FFBAE700BFD0
:100D300009000020240100201001002012010020E1
:100D400014010020160100202801002018010020B5
:100D50001A0100201C0100201E01002010B50446CD
:100D60000020FFF715FF2046FFF758FF10BD10B514
:100D700004460120FFF70CFF2046FFF74FFF10BD90
:100D800038B504460020FFF703FF104D04F00102C0
:100D90000F4B1988286801F0EAF804F002020D4BA5
:100DA0001988286801F0E3F804F004020A4B198856
:100DB000286801F0DCF804F00802084B198828685C
:100DC00001F0D5F8FFF7F2FE38BD00BF2801002082
:100DD000180100201A0100201C0100201E01002023
:100DE000F8B507460E4615461C46FFF7ADFE234BE9
:100DF0001F60234B1E80234B1D80234B1C60BDF8BE
:100E00001820224B1A80BDF81C20214B1A80BDF8F7
:100E10002020204B1A80BDF824201F4B1A801F4B26
:100E200000221A7028241E4B1C70142000F012FBA4
:100E30000320FFF7A5FF052000F00CFB0320FFF7C0
:100E40009FFF012000F006FB0320FFF799FF012020
:100E500000F000FB0220FFF793FF012000F0FAFAF8
:100E60002046FFF77BFF0F20FFF778FF0120FFF7F9
:100E700075FF032000F0EEFAF8BD00BF2C01002042
:100E8000220100202001002028010020180100205C
:100E90001A0100201C0100201E0100200900002072
:100EA0000800002008B501F00F0120B941F08000D2
:100EB000FFF754FF08BD41F0C000FFF74FFFF9E70F
:100EC00008B500210846FFF7EDFF08BD08B5002171
:100ED0000120FFF7E7FF08BD08B50120FFF73EFF3F
:100EE000032000F0B7FA08BD0FB410B586B008AA09
:100EF00052F8041B009201A804F0F6FF002401A898
:100F0000FFF71EF984420BD20F2C09D804F1180305
:100F10006B4413F8140CFFF72AFF0134E4B2EEE738
:100F200006B0BDE8104004B0704772B6FEE710B5D9
:100F30009AB04822002108A804F0E0FF00240194A0
:100F400002940394049405940694079401F098F88D
:100F50004FF0B042D2F8903023F01803C2F890302E
:100F600002F58062136823F4C06343F400731360D6
:100F7000136803F4C0630093009B272308934FF486
:100F80008033099301230A934FF480720B920F93DD
:100F900040220C9210946022119202221392149318
:100FA0001594202316934FF4003317934FF00053FA
:100FB00019934FF00073189308A801F067F990B9DE
:100FC0006F23019303210291802203920023049353
:100FD00005930692079301A801F0E4FC28B902F0FA
:100FE0009FF81AB010BDFFF7A0FFFFF79EFF00B5F6
:100FF00095B050220021684604F080FF4FF414534E
:101000000093182301934FF4003302934FF00073C1
:1010100003934FF0005304934FF0885305934FF020
:1010200080630D934FF080530F93684601F0E5FE07
:1010300010B915B05DF804FBFFF777FF08B500F0B5
:10104000DBF9FFF774FFFFF7D2FFFFF7FDFC00F0BD
:10105000E5F800F05DF900F08BF802F0C5FFFFF74E
:10106000C7FC02F0D3FFFEE708B500220F216FF0A6
:10107000010000F04FFE08BDFEE7FEE7FEE7FEE7D9
:10108000FEE7704708B500F0CDF904F0DDFB01285C
:1010900000D108BD03F0E6F9FBE70000164AD2F8DC
:1010A000883043F47003C2F888304FF0B0431A68B8
:1010B00042F001021A604FF4E0229A601968A2F12E
:1010C000A262A2F205120A401A60D3F8942022F01C
:1010D0000502C3F89420D3F8982022F00102C3F847
:1010E0009820064ADA601A611A6822F480221A608F
:1010F00000229A61704700BF00ED00E0001004225A
:101100000368B3F1804F00D0704782B04FF0B04316
:101110009A6D42F001029A659B6D03F00103019301
:10112000019B02B0704700B587B000230193029382
:101130000393049305930368B3F1804F02D007B083
:101140005DF804FB4FF0B043DA6C42F00102DA6460
:10115000DB6C03F001030093009B01230193022247
:101160000292059301A94FF0904000F01FFEE6E7C0
:1011700000B58FB000230A930B930C930D93079344
:1011800008930993009301930293039304930593A7
:10119000069321484FF080420260436083604FF025
:1011A000FF32C2600361836102F05CF920BB4FF43F
:1011B00080530A930AA9184802F09AFAF8B9164817
:1011C00002F080F9F0B900230793099307A91248A8
:1011D00002F0B6FBC8B9602300930022019202928C
:1011E000049269460C4802F0D9F988B90A48FFF719
:1011F0009AFF0FB05DF804FBFFF797FED7E7FFF704
:1012000094FEDCE7FFF791FEDDE7FFF78EFEE2E7F5
:10121000FFF78BFEEAE700BF3001002008B5184851
:10122000184B03604FF4E13343604FF08053836009
:101230000023C36003610C2242618361C3610362C6
:101240004362836202F0EAFD70B900210C4802F0AB
:101250005EFE60B900210A4802F07EFE50B90848DF
:1012600002F036FE48B908BDFFF75FFEEDE7FFF775
:101270005CFEEFE7FFF759FEF1E7FFF756FEF2E7F6
:101280007C0100200038014010B59CB004460021CC
:101290001791189119911A911B91502203A804F0EB
:1012A0002DFE2268184B9A4201D01CB010BD0123BC
:1012B000039303A801F0A1FD10BB4FF0B0431A6ED9
:1012C00042F480421A661A6E02F480420292029A36
:1012D000DA6C42F00202DA64DB6C03F00203019381
:1012E000019BC02317930223189301231993002312
:1012F0001A9307231B9317A9044800F057FDD4E75E
:10130000FFF713FED9E700BF003801400004004892
:1013100008B50A480A4B0360082343600223836030
:101320000361002343618361C361036200F024FE13
:1013300000B908BDFFF7F9FDFBE700BF1002002070
:101340000068004010B588B0002303930493059310
:10135000069307930268134B9A4201D008B010BD60
:101360004FF0B044E36C43F00103E364E36C03F03B
:1013700001030293029B4FF4C0530393022304938F
:101380000A23079303A94FF0904000F00FFDA36DCF
:1013900043F08063A365A36D03F080630193019B19
:1013A000DCE700BF00680040114B1B780BB901203F
:1013B000704710B5044600F059FF0D4B1A784FF4F2
:1013C0007A73B3FBF2F3B0FBF3F000F0DBFC68B927
:1013D0000F2C01D901200AE0002221464FF0FF30F6
:1013E00000F098FC034B1C60002000E0012010BDC1
:1013F000100000201400002010B5094A136843F4BF
:1014000080731360032000F073FC0F20FFF7CCFF04
:1014100010B10124204610BD0446FFF725FEF9E770
:1014200000400058034B1B78034A11680B441360BB
:10143000704700BF1000002004050020014B186811
:10144000704700BF04050020014B1868704700BFBB
:101450001400002038B50446FFF7F0FF0546B4F14C
:10146000FF3F02D0044B1B781C44FFF7E7FF401BF3
:10147000A042FAD338BD00BF1000002030B583B0C1
:1014800000230193002800F0DA800446436D13B373
:1014900023689A6812F0005F05D09A6822F0204213
:1014A00022F03F029A602268936813F0805F1FD198
:1014B000936823F0104323F03F0343F0805393607D
:1014C000604B1B689B09604AA2FB03239B09013305
:1014D0005B00019309E0FFF7ABF90023A36584F8F3
:1014E0005030D5E7019B013B0193019B002BF9D1C3
:1014F0002268936813F0805F78D1636D43F0100326
:101500006365A36D43F00103A3650120936813F0A5
:10151000040300D00123616D11F0100F40F08880AA
:10152000002B40F08580636D23F4817343F0020348
:101530006365936813F0010F0BD1444B9B6813F064
:10154000010F06D1636842498A6822F47C12134372
:101550008B60627E636B43EA4233E2681343A268A6
:10156000134394F8202043EA0243012A40D0A26AA0
:1015700022B102F47072E16A0A4313432168CD6814
:10158000344A2A401A43CA6021688B6813F0040366
:1015900000D001238A6812F0080200D00122B3B9FA
:1015A000AAB9237E94F83020520042EA8332CB68F5
:1015B00023F4804323F002031343CB6094F83830C4
:1015C000012B1AD02268136923F0010313612369E8
:1015D000012B24D02268136B23F00F031363636D78
:1015E00023F0030343F00103636526E000208DE749
:1015F000626A013A43EA4243B9E721680B6923F47E
:10160000FF6323F00403E26B256C2A43656C2A43D5
:10161000A56C2A43134343F001030B61D7E721680C
:101620000B6B23F00F03E269013A13430B63D6E718
:10163000636D43F010036365012003B030BD0120EA
:10164000FBE700BF0C000020632D3E0500000450A6
:101650000003045007C0F0FFF8B504460E46456984
:10166000082D05D00368DB6813F0010F1ED1042597
:10167000FFF7E4FE074623681A682A421CD1B6F138
:10168000FF3FF8D0FFF7DAFEC31BB34201D8002EAC
:10169000F1D123681B682B42EDD1636D43F0040345
:1016A0006365002384F85030032004E0436D43F069
:1016B000200343650120F8BD626D42F4007262654B
:1016C000DA6812F4406F11D1627E7AB91A6812F0AA
:1016D000080F0BD0626D22F480726265626D12F4A5
:1016E000805F03D1626D42F001026265082D07D070
:1016F000DA6812F4804F07D10C221A600020DAE772
:1017000008221A600020D6E70020D4E70368186C8E
:1017100070470000F0B583B00022019290F850208D
:10172000012A00F037820346012280F85020056824
:10173000A86810F0040F09D05A6D42F020025A65D3
:101740000120002283F8502003B0F0BD4C683035F2
:10175000220A920002F00C02A85804F01F0E1F2467
:1017600004FA0EF420EA04000C68C4F3846C0CFA4A
:101770000EFC40EA0C00A8501C68A26812F004029B
:1017800000D00122A06810F0080000D001200AB9A2
:1017900000283AD01868826812F0010F40F0F481F6
:1017A0000A68CD68D0F8B040C2F3120C24EA0C04E9
:1017B00005F0180CB04D25FA0CF52A40C2F31202C0
:1017C0002243C0F8B020C868AC4A904200F0B18013
:1017D0000A68AB490A4200F0D981AA49896801F038
:1017E000E074A948806810F0010F40F07981A748A3
:1017F000824200F07B81A648824200F09E81A5488B
:10180000824200F0AE8100209BE70E688D681434A0
:10181000720E920002F00402A058C6F3045C072680
:1018200006FA0CF620EA060005FA0CF52843A0504B
:101830004C691868C268C2F3C102520094400D6935
:10184000042D0ED00E68603050F82570924A3A4050
:1018500006F0F8463443224342F0004240F8252087
:1018600098E7026E046EC4F384640A68C2F312053A
:1018700085BBC2F38462944234D01C68626E606E91
:10188000C0F384600A68C2F3120585BBC2F38462A8
:10189000904234D01C68A26EA06EC0F384600A68C7
:1018A000C2F3120585BBC2F38462904234D01C6837
:1018B000E26EE06EC0F384600A68C2F3120585BB75
:1018C000C2F3846290427FF465AFE26E22F0004280
:1018D000E2665FE792FAA2F212B1B2FA82F2CAE7C6
:1018E0002022C8E7026E22F000420266C5E792FAA3
:1018F000A2F212B1B2FA82F2CAE72022C8E7626EFF
:1019000022F000426266C5E792FAA2F212B1B2FA80
:1019100082F2CAE72022C8E7A26E22F00042A26645
:10192000C5E792FAA2F212B1B2FA82F2CAE7202215
:10193000C8E71C680A68C2F31205002D3BD1900E5F
:10194000013000F01F0009288CBF00200120002872
:1019500069D0002D3ED1900E0130800600F0F84095
:10196000002D43D14FEA926C0CF1010C0CF01F0CCE
:10197000012606FA0CF63043002D46D1920E0132B4
:1019800002F01F0202EB4202120510438D6804F1BF
:10199000140E420E920002F004025EF80240C0F300
:1019A00004500726864024EA060C85404CEA0505CB
:1019B0004EF802500CE792FAA2F048B1B0FA80F06B
:1019C000013000F01F0009288CBF00200120BEE775
:1019D0002020F5E792FAA2F030B1B0FA80F00130A1
:1019E000800600F0F840BBE72020F8E792FAA2F664
:1019F0004EB1B6FA86F6013606F01F064FF0010C1E
:101A00000CFA06F6B7E72026F5E792FAA2F242B101
:101A1000B2FA82F2013202F01F0202EB4202120518
:101A2000B3E72022F6E7E5B9900E0130800600F01A
:101A3000F840ADBB4FEA926C0CF1010C0CF01F0C9E
:101A4000012606FA0CF63043CDBB920E013202F0AD
:101A50001F0202EB42021E3A120542F000721043CE
:101A600094E792FAA2F0C8B1B0FA80F00130800693
:101A700000F0F840DDE700BFFFFF070000007F40F7
:101A8000000008800003045000000450000052C70A
:101A9000000084CB0100008000F0FF032020E5E778
:101AA00092FAA2F64EB1B6FA86F6013606F01F0695
:101AB0004FF0010C0CFA06F6C5E72026F5E792FA7E
:101AC000A2F25AB1B2FA82F2013202F01F0202EB24
:101AD00042021E3A120542F00072C0E72022F3E7EC
:101AE0005A6D42F020025A6501202AE611F4000FD7
:101AF0007FF481AE1968284A914201D0002020E687
:101B000044F400022548816821F0E0710A438260B4
:101B1000234A126892092349A1FB02129209013259
:101B200002EB42029200019202E0019A013A019214
:101B3000019A002AF9D1002003E611F0807F7FF49A
:101B40005EAE1968144A914201D00020F9E544F0D4
:101B500080721248816821F0E0710A43826000209F
:101B6000EFE511F4800F13D119680B4A914201D0AF
:101B70000020E6E544F480020848816821F0E07125
:101B80000A4382600020DCE50020DAE50020D8E589
:101B90000020D6E50220D7E50000045000030450E1
:101BA0000C000020632D3E0530B583B00023019367
:101BB00003689A6812F0010F52D1044699682A4AC4
:101BC000114216D19A6822F0004222F03F0242F000
:101BD00001029A60254B9B6813F4000F19D0244B27
:101BE0001B689B09234AA2FB03239B090133019332
:101BF0000CE0436D43F010034365836D43F0010334
:101C0000836501202DE0019B013B0193019B002B8B
:101C1000F9D1FFF713FC054604E0FFF70FFC431B67
:101C2000022B11D823681A6812F0010F16D19A6896
:101C300012F0010FF1D19A6822F0004222F03F0227
:101C400042F001029A60E8E7636D43F010036365B8
:101C5000A36D43F00103A365012002E0002000E032
:101C6000002003B030BD00BF3F00008000030450DF
:101C70000C000020632D3E0503689B6813F0040FE1
:101C800032D110B5044690F85030012B2ED00123EC
:101C900080F85030FFF788FF10BB636D23F470634A
:101CA00023F0010343F480736365636D13F4805F75
:101CB00013D0A36D23F00603A36523681C221A60CA
:101CC000002384F850302268936823F0004323F007
:101CD0003F0343F00403936010BD0023A365ECE7CA
:101CE000002384F85030F7E7022070470220F3E722
:101CF000074AD36823F4E0631B041B0C000200F4C2
:101D0000E060034343F0BF6343F40033D3607047A4
:101D100000ED00E000B5194BDB68C3F30223C3F10B
:101D2000070CBCF1040F28BF4FF0040C03F1040EA4
:101D3000BEF1060F18D9033B4FF0FF3E0EFA0CFC24
:101D400021EA0C0199400EFA03FE22EA0E020A4330
:101D500000280BDB1201D2B200F1604000F56140B7
:101D600080F800235DF804FB0023E5E700F00F0096
:101D70001201D2B2024B1A54F4E700BF00ED00E0AA
:101D800014ED00E00138B0F1807F0BD24FF0E0237A
:101D90005861054AF02182F823100020986107223B
:101DA0001A6170470120704700ED00E0F0B5002394
:101DB00066E085685E000324B44025EA0405CC682B
:101DC000B4402C438460456825EA0C054C68C4F394
:101DD00000149C402C43446063E0DD08083550F853
:101DE000254003F0070C4FEA8C0C4FF00F0E0EFA53
:101DF0000CFE24EA0E0E0C6904FA0CF444EA0E04FC
:101E000040F8254064E0042400E0002404FA0EF4C5
:101E10002C430CF1020C4F4D45F82C404E4C2568DC
:101E2000D44325EA02064F6817F4801F01D042EA26
:101E30000506494D2E606D6804EA05064F6817F4E3
:101E4000001F01D042EA0506434D6E60D5F8805070
:101E500004EA05064F6817F4803F01D042EA050600
:101E60003D4DC5F88060D5F884502C404E6816F47E
:101E7000003F01D042EA0504374AC2F884400133EA
:101E80000A6832FA03F464D04FF0010C0CFA03FC38
:101E90001CEA0202F3D04C6804F00304013C012C5C
:101EA00087D94C6804F00304032C0CD0C4685D008F
:101EB0004FF0030C0CFA05FC24EA0C0C8C68AC40C7
:101EC00044EA0C04C4604C6804F00304022C84D07F
:101ED00004684FEA430E4FF0030C0CFA0EFC24EAA0
:101EE0000C0C4C6804F0030404FA0EF444EA0C04ED
:101EF00004604C6814F4403FC1D04FEA930C0CF1DD
:101F00000205144C54F8255003F0030E4FEA8E0ED0
:101F10000F2404FA0EF425EA0405B0F1904F3FF4C3
:101F200074AF0E4CA0420ED004F58064A0420CD0D9
:101F300004F58064A0420AD004F58064A0423FF416
:101F400062AF072462E7012460E702245EE703240E
:101F50005CE7F0BD000001400008005800040048A4
:101F60000369194201D001207047002070470AB16F
:101F70008161704781627047002869D030B587B0B1
:101F8000044690F8A9323BB1032384F8A9322068B3
:101F900002F007F800231BE080F8A832FFF7D2F91F
:101FA000F2E75A1C02EB820104EBC10101204870E8
:101FB00002EB820104F8313004EBC1000021C17052
:101FC00003EB830004EBC0008163C1630164D3B2FF
:101FD00060688342E5D3002316E003EB830204EB41
:101FE000C202002182F8691182F8683182F86B110F
:101FF000C2F87811C2F87C1103EB830204EBC20231
:10200000C2F880110133DBB29842E6D8A4465CF8EE
:10201000105BEE46BCE80F00AEE80F00DCF80030C5
:10202000CEF80030231D0ECB284601F0C4FF00235C
:1020300084F82430012384F8A932E369012B02D00B
:10204000002007B030BD204600F004F80020F8E77B
:1020500001207047034602680121C0F8E812002001
:1020600083F8E002B2F854309BB20B43A2F854302C
:10207000B2F854309BB243F00203A2F854307047D8
:10208000024A136843F480731360704700040058D9
:10209000024B186800F4C060704700BF000400588D
:1020A00030B58DB005468E462B4C94E80F000DF1EF
:1020B000300C0CE90F0005AB04F1100207CA83E8ED
:1020C00007000DF1040C1C3494E80F008CE80F009D
:1020D000BEF5007F07D0002314E00CAA02EB8303B7
:1020E00053F82C5C1EE00023032B08D80CAA02EB4B
:1020F000830252F8102CAA42EFD20133F4E70025F4
:1021000010E00133022B0CD80CAA02EB830252F828
:102110001C2CAA42F5D30CAA02EB830353F82C5CC7
:1021200000E000250D4A136823F007032B431360DA
:10213000FFF784F90446094B1B6803F00703AB4221
:1021400006D0FFF77BF9001B0228F4D9032000E03A
:1021500000200DB030BD00BFE06A0008004000580C
:1021600010B5B02816D90E4BDC6A4FF0B043D3F847
:10217000083103F00F030B4A52F82330B4FBF3F499
:10218000FFF786FF0146084BA3FB0434A00CFFF7C2
:1021900087FF10BDC0F30310014B53F82040E4E764
:1021A000306C0008D06B000883DE1B434FF0B04357
:1021B0009B6813F00C030DD14FF0B0431B6803F084
:1021C000F003B02B04D81B09254A52F823007047AE
:1021D000B023F8E7042B3ED0082B10D04FF0B043CB
:1021E000DB6803F00303022B31D0032B0FD14FF038
:1021F000B0431B6813F4801F2BD11A4812E04FF034
:10220000B0431B6813F4801F27D0174870474FF066
:10221000B0431B6803F0F003B02B16D81B09104A1B
:1022200052F823004FF0B042D368C3F3062303FBF8
:1022300000F0D368C3F302130133B0FBF3F0D368AB
:102240005B0F0133B0FBF3F07047B023E6E70648BD
:10225000E8E70548E6E7044870470248704700BFD2
:10226000306C00080048E8010024F40008B5FFF7CE
:102270009DFF4FF0B0439B68C3F30313024A52F82B
:102280002330B0FBF3F008BDD06B0008002800F04D
:10229000728338B50446036813F0200F2DD04FF039
:1022A000B0429368D26802F0030213F00C0358D0D6
:1022B0000C2B54D0E369002B00F0A0804FF0B0420B
:1022C000136843F001031360FFF7B8F805464FF0B9
:1022D000B0431B6813F0020F00F08880636A4FF070
:1022E000B042116821F0F0010B431360216A53687A
:1022F00023F47F4343EA01235360236813F0010F63
:1023000000F09A804FF0B042936803F00C03D2685B
:1023100002F00302082B00F08B800C2B00F085806C
:102320006368B3F5803F00F0B0804FF0B0421368AF
:1023300023F4803313606368002B00F0AD80FFF757
:102340007DF805464FF0B0431B6813F4003F73D18E
:10235000FFF774F8401B6428F4D9032016E3012A20
:10236000A8D1E369002B00F00883606A4FF0B04306
:102370001B6803F0F003B02B21D8984221D9FFF756
:10238000EFFE002840F0FB82636A4FF0B042116814
:1023900021F0F0010B431360216A536823F47F435B
:1023A00043EA01235360FFF761FFBF4B1860BF4B47
:1023B0001868FEF7F9FF00289FD00120E6E2B0235D
:1023C000DBE74FF0B042136823F0F00318431060CE
:1023D000216A536823F47F4343EA01235360606A10
:1023E000FFF7BEFE0028DED00120CFE2FFF726F87F
:1023F000401B02287FF66BAF0320C7E24FF0B042CC
:10240000136823F001031360FFF718F805464FF037
:10241000B0431B6813F0020F3FF46FAFFFF70EF8E5
:10242000401B0228F3D90320B0E2032A7FF478AFDF
:102430006368002B00F0A582236813F0020F54D0CC
:102440004FF0B042936803F00C03D26802F003022D
:10245000042B33D00C2B2FD0E368002B71D04FF01E
:10246000B042136843F480731360FEF7E7FF05463C
:102470004FF0B0431B6813F4806F2DD1FEF7DEFFE1
:10248000401B0228F4D9032080E24FF0B0421368C9
:1024900043F4803313604EE7FEF7D0FF05464FF05C
:1024A000B0431B6813F4003FC6D0FEF7C7FF401BC4
:1024B0006428F4D9032069E2022ACDD1E368002B15
:1024C00000F0618221694FF0B042536823F0FE436F
:1024D00043EA0163536008E021694FF0B04253685A
:1024E00023F0FE4343EA01635360236813F0180F9F
:1024F00000F0DE806269002A00F0A38013F0100F64
:1025000070D04FF0B043D3F8943013F0020F2ED1B7
:102510004FF0B042D2F8943043F00103C2F8943047
:10252000FEF78CFF05464FF0B043D3F8943013F01C
:10253000020F1CD1FEF782FF401B0228F3D90320B3
:1025400024E24FF0B042136823F480731360FEF767
:1025500075FF05464FF0B0431B6813F4806FC4D07D
:10256000FEF76CFF401B0228F4D903200EE24FF067
:10257000B042D2F8943043F00403C2F89430FEF72E
:102580005DFF05464FF0B043D3F8943013F0080FC9
:1025900006D1FEF753FF401B0328F3D90320F5E1D2
:1025A000A1694FF0B042D2F8943023F4706343EA4B
:1025B0000123C2F89430D2F8943023F00103C2F81A
:1025C0009430FEF73BFF05464FF0B043D3F894300C
:1025D00013F0020F6CD0FEF731FF401B0228F3D935
:1025E0000320D3E14FF0B042D2F8943043F001031E
:1025F000C2F89430FEF722FF05464FF0B043D3F8FF
:10260000943013F0020F06D1FEF718FF401B02288A
:10261000F3D90320BAE14FF0B042D2F8943023F05E
:102620000403C2F894304FF0B043D3F8943013F061
:10263000080F3DD0FEF702FF401B0328F3D903200B
:10264000A4E14FF0B042D2F8943023F00403C2F872
:102650009430FEF7F3FE05464FF0B043D3F89430C4
:1026600013F0080F18D14FF0B042D2F8943023F095
:102670000103C2F89430FEF7E1FE05464FF0B04387
:10268000D3F8943013F0020F12D0FEF7D7FE401BA0
:102690000228F3D9032079E1FEF7D0FE401B03287E
:1026A000DAD9032072E100BF0C00002014000020E2
:1026B000236813F0040F68D0B74B1B6813F4807FB6
:1026C00027D0A368012B35D0052B3CD04FF0B04369
:1026D000D3F8902022F00102C3F89020D3F8902084
:1026E00022F00402C3F89020A368DBB3FEF7A6FE35
:1026F00005464FF0B043D3F8903013F0020F44D1A9
:10270000FEF79CFE401B41F288339842F1D903202A
:102710003CE1FFF7B5FCFEF791FE05469E4B1B68BA
:1027200013F4807FCDD1FEF789FE401B0228F5D936
:1027300003202BE14FF0B042D2F8903043F0010378
:10274000C2F89030D0E74FF0B043D3F8902042F079
:102750000402C3F89020D3F8902042F00102C3F89D
:102760009020C1E7FEF76AFE05464FF0B043D3F86C
:10277000903013F0020F08D0FEF760FE401B41F2CC
:1027800088339842F1D9032000E1236813F0400F09
:1027900033D0A36AC3B14FF0B042D2F8983043F0BF
:1027A0000103C2F89830FEF749FE05464FF0B043EA
:1027B000D3F8983013F0020F1FD1FEF73FFE401BF5
:1027C0000228F3D90320E1E04FF0B042D2F898306C
:1027D00023F00103C2F89830FEF730FE05464FF0B3
:1027E000B043D3F8983013F0020F06D0FEF726FE60
:1027F000401B0228F3D90320C8E0E36A002B00F055
:10280000C4804FF0B042916801F00C01D268022BF5
:1028100019D00C2900F0BD804FF0B042136823F0AE
:1028200080731360FEF70AFE04464FF0B0431B6846
:1028300013F0007F00F09780FEF700FE001B0228D7
:10284000F3D90320A2E002F00303206B83420AD0F5
:102850000C2900F09C804FF0B0431B6813F0806F90
:1028600022D0012092E002F07003606B8342EFD12E
:10287000C2F30623A06B8342EAD102F47813E06B23
:102880008342E5D102F06063206C8342E0D102F024
:102890006042636C9A42DBD14FF0B0431B6813F087
:1028A000007F44D0002071E04FF0B042136823F065
:1028B00080731360FEF7C2FD05464FF0B0431B68FE
:1028C00013F0007F06D0FEF7B9FD401B0228F4D9B3
:1028D00003205BE04FF0B042D36830491940236BCE
:1028E000606B0343A06B43EA0023E06B0343206C5F
:1028F0000343606C03431943D160136843F0807352
:102900001360D36843F08053D360FEF797FD04460D
:102910004FF0B0431B6813F0007F06D1FEF78EFD29
:10292000001B0228F4D9032030E000202EE04FF0F5
:10293000B0431A6842F080721A60DA6842F080523E
:10294000DA60FEF77BFD04464FF0B0431B6813F0DE
:10295000007F06D1FEF772FD031B022BF4D9032082
:1029600014E0002012E04FF0B042D1680C4B0B4055
:10297000D36000200AE001207047012006E001201A
:1029800004E0012002E0012000E0002038BD012029
:10299000FCE70120FAE700BF000400588C80C11159
:1029A000FCFFFEEE002800F0278170B50C460546BE
:1029B000934B1B6803F007038B422DD32B6813F056
:1029C000020F3FD12B6813F0200F53D12B6813F067
:1029D000400F6AD12B6813F0040F40F083802B68FE
:1029E00013F0080F40F097802B6813F0010F00F0F0
:1029F000DE806B68022B00F0A880032B00F0AD8016
:102A0000002B40F0B2804FF0B042126812F0020F7B
:102A100040F0B1800120EEE0794A136823F007030B
:102A20000B431360FEF70AFD0646754B1B6803F067
:102A30000703A342C2D0FEF701FD801B0228F4D990
:102A40000320D8E0AB684FF0B0418A6822F0F00272
:102A500013438B60FEF7F2FC06464FF0B0439B68D1
:102A600013F4803FAED1FEF7E9FC801B0228F4D9B5
:102A70000320C0E06B694FF0B041D1F8082122F08B
:102A8000F0021343C1F80831FEF7D8FC06464FF0B8
:102A9000B043D3F8083113F4003F97D1FEF7CEFCD2
:102AA000801B0228F3D90320A5E0A9694FF0B042AA
:102AB000D2F8083123F00F0343EA1113C2F80831AA
:102AC000FEF7BCFC06464FF0B043D3F8083113F4D0
:102AD000803F7FF47FAFFEF7B1FC801B0228F2D964
:102AE000032088E0EB684FF0B0418A6822F4E0628E
:102AF00013438B60FEF7A2FC06464FF0B0439B6881
:102B000013F4003F7FF46BAFFEF798FC801B0228A4
:102B1000F3D903206FE029694FF0B042936823F4A2
:102B2000605343EAC1039360FEF788FC06464FF00A
:102B3000B0439B6813F4802F7FF456AFFEF77EFC02
:102B4000801B0228F3D9032055E04FF0B0421268F1
:102B500012F4003F0FD101204DE04FF0B042126857
:102B600012F0007F07D1012045E04FF0B04212681B
:102B700012F4806F42D04FF0B0418A6822F0030215
:102B800013438B60FEF75AFC06464FF0B0439B6838
:102B900003F00C036A68B3EB820F08D0FEF74EFC1B
:102BA000801B41F288339842EFD9032023E0144B75
:102BB0001B6803F00703A34215D9114A136823F0D9
:102BC000070323431360FEF739FC05460C4B1B68D3
:102BD00003F00703A34206D0FEF730FC401B022897
:102BE000F4D9032007E0FFF741FB064B1860FEF71E
:102BF0002BFCFEF7D9FB70BD012070470120FAE7DE
:102C0000004000580C00002008B5FFF72FFB4FF0E4
:102C1000B0439B68C3F30223034A52F8233003F006
:102C20001F03D84008BD00BF106C000808B5FFF7AF
:102C30001DFB4FF0B0439B68C3F3C223034A52F815
:102C4000233003F01F03D84008BD00BF106C0008FC
:102C500070B505464FF0B042136823F080631360EF
:102C6000FEF7ECFB04464FF0B0431B6813F0006F17
:102C700006D0FEF7E3FB001B0228F4D9032400E092
:102C800000240CB1204670BD4FF0B0431A6922F405
:102C9000FE42296842EA01221A611A6922F4781276
:102CA00069680A431A611A6842F080621A60FEF786
:102CB000C5FB06464FF0B0431B6813F0006F05D10B
:102CC000FEF7BCFB801B0228F4D90324002CD9D1C9
:102CD0004FF0B042136929690B431361D2E770B515
:102CE00005464FF0B042136823F080631360FEF78F
:102CF000A5FB04464FF0B0431B6813F0006F06D0ED
:102D0000FEF79CFB001B0228F4D9032400E00024FA
:102D10000CB1204670BD4FF0B0431A6922F4FE4258
:102D2000296842EA01221A611A6922F06062A968E0
:102D30000A431A611A6842F080621A60FEF77EFB4D
:102D400006464FF0B0431B6813F0006F05D1FEF745
:102D500075FB801B0228F4D90324002CD9D14FF035
:102D6000B042136929690B431361D2E770B5054678
:102D70004FF0B042136823F080631360FEF75EFBF0
:102D800004464FF0B0431B6813F0006F06D0FEF707
:102D900055FB001B0228F4D9032400E000240CB1E9
:102DA000204670BD4FF0B0431A6922F4FE422968F4
:102DB00042EA01221A611A6922F06042E9680A4374
:102DC0001A611A6842F080621A60FEF737FB064605
:102DD0004FF0B0431B6813F0006F05D1FEF72EFBD8
:102DE000801B0228F4D90324002CD9D14FF0B04223
:102DF000136929690B431361D2E770B50446036870
:102E000013F0400F2FD0036BB3F5800F21D00AD8F9
:102E100033B90430FFF71CFF064658B1054624E0DD
:102E200001252E4621E0B3F5000F1AD0B3F5400F6F
:102E30000CD10026236B4FF0B041D1F8882022F44A
:102E400040021343C1F8883000250EE001252E46CC
:102E50000BE04FF0B042D36843F48033D3600026D8
:102E6000E8E70026E6E700252E46236813F4006F06
:102E70000AD04FF0B043D3F8905005F44075236C5E
:102E8000AB4240F0B7803546236813F0010F09D0FC
:102E9000A3694FF0B041D1F8882022F00302134318
:102EA000C1F88830236813F0020F09D0E3694FF0AE
:102EB000B041D1F8882022F440621343C1F8883031
:102EC000236813F0100F0CD0A06A4FF0B041D1F876
:102ED0008830020C120423EA020343EA0043C1F8DB
:102EE0008830236813F0200F0CD0E06A4FF0B04117
:102EF000D1F88830020C120423EA020343EA0043AB
:102F0000C1F88830236813F0040F40F0B4802368C0
:102F100013F0080F40F0C080236813F4807F13D0B3
:102F2000636B4FF0B041D1F8882022F04062134328
:102F3000C1F88830636BB3F1006F00F0BE80636B43
:102F4000B3F1806F00F0BE80236813F4007F17D0C8
:102F5000A36BB3F1804F05D0B3F1004F02D0002B2B
:102F600040F0B8804FF0B041D1F8882022F04042C4
:102F70001343C1F88830A36BB3F1C05F00F0BC808D
:102F8000236813F4806F13D0E36B4FF0B041D1F896
:102F9000882022F040521343C1F88830E36BB3F12C
:102FA000005F00F0B080E36BB3F1805F00F0B080B1
:102FB000236813F4805F09D0636C4FF0B041D1F8FF
:102FC000942022F440421343C1F89430236813F450
:102FD000005F0DD0E26C4FF0B043596A21F0300130
:102FE0000A435A62A26C596A21F003010A435A62E9
:102FF000284670BDFFF744F85DB9236C4FF0B0412F
:10300000D1F8902022F440721343C1F89030354635
:103010003AE74FF0B043D3F89020D3F8901041F442
:103020008031C3F89010D3F8901021F48031C3F8A8
:10303000901022F44072216C0A43C3F89020D3F818
:10304000903013F0010F12D0FEF7F8F905464FF05B
:10305000B043D3F8903013F0020F0AD1FEF7EEF927
:10306000401B41F288339842F1D903250CE73546DD
:103070000AE7354608E7236A4FF0B040D0F88820C9
:10308000190901F47F2122EA01021B0103F47F23C5
:103090001343C0F888303AE7636A4FF0B040D0F885
:1030A0008820190901F47F2122EA01021B0103F49F
:1030B0007F231343C0F888302EE7CB6843F080733A
:1030C000CB603CE7201DFFF70AFE00283FF43CAF31
:1030D000054639E723F080534FF0B042D2F888100C
:1030E00021F04041C2F88810D2F8881021F04061E8
:1030F0000B43C2F888303EE74FF0B042D36843F04C
:103100008073D3603CE7CB6843F48033CB604AE7FD
:10311000201DFFF72BFE00283FF44AAF054647E786
:103120004FF0B042136843F004031360704700008F
:1031300030B4036A23F001030362026A44688369BE
:1031400023F4803323F073030D681D4322F0020241
:103150008B681343144A904207D002F5E052904224
:1031600003D0A2F58062904205D123F00803CA681B
:103170001A4322F004030C4A904207D002F5C052D1
:10318000904203D002F58062904205D124F440744D
:103190004A6922438C691443446085614A684263EA
:1031A000036230BC704700BF002C014030B4036A9A
:1031B00023F480730362036A4468C26922F4803294
:1031C00022F073020D68154323F400738A6843EA02
:1031D0000223124A904219D0104A904207D002F5B9
:1031E000C052904203D002F58062904207D124F48D
:1031F00040544A6944EA02148A6944EA0214446069
:10320000C5614A68C263036230BC704723F400633F
:10321000CA6843EA022323F48063DDE7002C0140FF
:1032200030B4036A23F480530362026A4468C369BA
:1032300023F0807323F4E6430D6843EA052322F468
:1032400000528D6842EA05320B4DA84207D005F5C1
:10325000C055A84203D005F58065A84204D124F4E6
:1032600080444D6944EA85144460C3614B6803643B
:10327000026230BC704700BF002C014030B4036ACA
:1032800023F480330362036A4468426D22F480327F
:1032900022F070020D682A4323F400338D6843EA5C
:1032A00005430B4DA84207D005F5C055A84203D0F1
:1032B00005F58065A84204D124F480344D6944EAC0
:1032C0000524446042654A688265036230BC7047E9
:1032D000002C014030B4036A23F480130362026AB5
:1032E0004468436D23F0807323F4E0430D6843EAA0
:1032F000052322F400128D6842EA05520B4DA842C4
:1033000007D005F5C055A84203D005F58065A84251
:1033100004D124F480244D6944EA85244460436543
:103320004B68C365026230BC704700BF002C01408F
:1033300010B4036A046A24F001040462846924F06E
:10334000F00C4CEA021223F00A030B438261036281
:103350005DF8044B704710B4036A23F01003036256
:103360008469036A24F4704C4CEA023223F0A0030F
:1033700043EA0113826103625DF8044B704783687E
:1033800023F4401323F070030B4343F007038360DF
:103390007047000090F83D30DBB2012B1DD10223B5
:1033A00080F83D300368104A934208D0B3F1804F53
:1033B00005D01A6842F001021A600020704799682F
:1033C0000A4A0A40062A0AD0B2F5803F09D01A6894
:1033D00042F001021A60002070470120704700206F
:1033E00070470020704700BF002C0140070001001B
:1033F0007047000003681A4A904202D0B0F1804F33
:1034000003D123F070034A681343154A90420AD04F
:10341000B0F1804F07D002F5C052904203D002F5C0
:103420008062904203D123F44073CA68134323F0AF
:1034300080034A69134303608B68C3620B6883622D
:10344000074B984207D003F5C053984203D003F5C9
:103450008063984201D10B69036301234361704784
:10346000002C014060B310B5044690F83D3013B312
:10347000022384F83D30214651F8040BFFF7BAFFD0
:10348000012384F8483084F83E3084F83F3084F8D3
:10349000403084F8413084F8423084F8433084F876
:1034A000443084F8453084F8463084F8473084F856
:1034B0003D30002010BD80F83C30FDF721FED7E7FD
:1034C0000120704760B310B5044690F83D3013B347
:1034D000022384F83D30214651F8040BFFF78AFFA0
:1034E000012384F8483084F83E3084F83F3084F873
:1034F000403084F8413084F8423084F8433084F816
:10350000443084F8453084F8463084F8473084F8F5
:103510003D30002010BD80F83C30FFF769FFD7E751
:103520000120704730B4036A23F010030362036A7A
:103530004468826922F0807222F4E6420D6842EA11
:10354000052223F020038D6843EA0513124DA8429B
:1035500019D0114DA84207D005F5C055A84203D097
:1035600005F58065A84207D124F440644D6944EA1A
:1035700085048D6944EA8504446082614A688263F7
:10358000036230BC704723F08003CD6843EA051323
:1035900023F04003DDE700BF002C014038B590F870
:1035A0003C30012B00F0958004460D46012380F845
:1035B0003C30142A00F28880DFE802F00B86868611
:1035C0001F86868634868686488686865D868686BB
:1035D00071000068FFF7ACFD2268936943F00803AF
:1035E00093612268936923F00403936122689369CD
:1035F00029690B439361002067E00068FFF792FFA1
:103600002268936943F4006393612268936923F409
:103610008063936122689369296943EA0123936176
:10362000002052E00068FFF7C1FD2268D36943F033
:103630000803D3612268D36923F00403D3612268AD
:10364000D36929690B43D36100203EE00068FFF78E
:10365000E7FD2268D36943F40063D3612268D3692C
:1036600023F48063D3612268D369296943EA012383
:10367000D361002029E00068FFF700FE2268536D47
:1036800043F0080353652268536D23F00403536528
:103690002268536D29690B435365002015E00068CB
:1036A000FFF718FE2268536D43F4006353652268E8
:1036B000536D23F4806353652268536D296943EA8F
:1036C00001235365002000E00120002384F83C30F2
:1036D00038BD0220FCE710B4846824F47F4C42EA31
:1036E00003220A4342EA0C0282605DF8044B7047F1
:1036F00090F83C30012B76D010B50446012380F8B9
:103700003C30022380F83D3002689068374B03401C
:1037100093600B68602B4CD029D8402B54D00CD927
:10372000502B22D1CA6849682068FFF701FE50215A
:103730002068FFF724FE002005E0202B0DD009D9DA
:10374000302B0AD00120012384F83D30002384F877
:103750003C3010BD0BB1102B05D119462068FFF786
:103760000EFE0020EFE70120EDE70120EBE7B3F5C7
:10377000805F34D0B3F5005F0CD1CB684A688968AC
:103780002068FFF7A8FF2268936843F480439360A2
:103790000020D8E7702B24D1CB684A68896820685C
:1037A000FFF799FF2268936843F077039360002046
:1037B000C9E7CA6849682068FFF7CDFD6021206825
:1037C000FFF7DDFD0020BEE7CA6849682068FFF703
:1037D000AFFD40212068FFF7D2FD0020B3E70020B5
:1037E000B1E70120AFE70220704700BF8800CEFF9D
:1037F00001F01F014FF0010C0CFA01FC036A23EAEF
:103800000C030362036A8A4013430362704700009B
:1038100010B5044610293BD8DFE801F0093A3A3ADE
:103820001E3A3A3A253A3A3A2C3A3A3A330090F864
:103830003E30DBB2013B18BF0123002B75D11029AC
:1038400061D8DFE801F02C60606050606060546017
:103850006060586060605C0090F83F30DBB2013B14
:1038600018BF0123E9E790F84030DBB2013B18BFF5
:103870000123E2E790F84130DBB2013B18BF01239E
:10388000DBE790F84230DBB2013B18BF0123D4E7FD
:1038900090F84330DBB2013B18BF0123CDE7022390
:1038A00084F83E3001222068FFF7A2FF2368224AF5
:1038B000934207D002F5C052934203D002F58062D2
:1038C000934203D15A6C42F400425A6423681A4A64
:1038D00093421CD0B3F1804F19D01A6842F0010214
:1038E0001A60002022E0022384F83F30DAE7022346
:1038F00084F84030D6E7022384F84130D2E702232F
:1039000084F84230CEE7022384F84330CAE799684E
:103910000A4A0A40062A0AD0B2F5803F09D01A683E
:1039200042F001021A60002000E0012010BD0020DA
:10393000FCE70020FAE700BF002C0140070001006F
:1039400090F83C20012A2BD030B40346012280F8A5
:103950003C20022280F83D20006842688468114DB6
:10396000A84218D022F070020D682A4342601A68FB
:103970000C48824202D0B2F1804F04D124F080047E
:10398000896821439160012283F83D20002083F85B
:103990003C0030BC704722F470024D682A43E1E7D6
:1039A00002207047002C014070B50446016883680E
:1039B0000269134342691343C269134308688B4A7F
:1039C00002401A430A602268536823F44053E168B6
:1039D0000B435360A1692268854B9A4201D0236A48
:1039E0001943936823F06E4323F430630B439360D1
:1039F0002268D36A23F00F03616A0B43D362226803
:103A00007C4B9A4214D07A4B9A4225D010237849A5
:103A10008A4240D0E069B0F5004F7AD0013B072BD5
:103A200000F2D680DFE803F0A5A3D4BED4D4D4C17D
:103A30004FF0B043D3F8883003F00303032B09D8C9
:103A4000DFE803F002041F060123E0E70423DEE7BA
:103A50000823DCE71023DAE74FF0B043D3F88830CF
:103A600003F44063B3F5006F0DD005D86BB1B3F527
:103A7000806F0CD10423CAE7B3F5406F09D1082346
:103A8000C5E70223C3E70223C1E70023BFE71023F2
:103A9000BDE71023BBE7082B00F28A80DFE803F0C4
:103AA000088837883488888805004FF4004003E090
:103AB000FFF7AAF800287DD0626A4F4B33F8122036
:103AC000B0FBF2F3656805EB4501994274D8B3EB9E
:103AD000053F73D8002633463146FCF789FB0902BF
:103AE00041EA106100026B08C0182A46334641F1D2
:103AF0000001FCF77DFBA0F54072404B9A425FD875
:103B00002368D860304664E0FEF750FBD2E73C48BB
:103B1000D2E7013B072B55D8DFE803F00604542613
:103B20005454540A364803E0FFF780F800284BD07D
:103B3000626A314B33F81230B0FBF3F0626853081D
:103B400003EB4003B3FBF2F3A3F110014FF6EF7266
:103B500091423BD89AB222F00F02C3F342031343BF
:103B60002268D360002034E0FEF720FBDEE7244823
:103B700002E0FFF75BF8A8B3626A1F4B33F812301C
:103B8000B0FBF3F0636800EB5300B0FBF3F0A0F17F
:103B900010024FF6EF739A4226D8236880B2D8609D
:103BA000002016E0FEF702FBE5E74FF40040E3E7F4
:103BB00001200EE000200CE001200AE0012008E0D6
:103BC000012006E0012004E0002002E0012000E0E6
:103BD00001200123A4F86A30A4F868300023636749
:103BE000A36770BD0020F4E70120F2E7F369FFCF7F
:103BF0000080004000380140706C0008FFFC0F009E
:103C00000024F400836A13F0010F06D002685368A1
:103C100023F40033C16A0B435360836A13F0020F2D
:103C200006D00268536823F48033016B0B43536062
:103C3000836A13F0040F06D00268536823F48023CC
:103C4000416B0B435360836A13F0080F06D0026880
:103C5000536823F40043816B0B435360836A13F072
:103C6000100F06D00268936823F48053C16B0B4396
:103C70009360836A13F0200F06D00268936823F4E0
:103C80000053016C0B439360836A13F0400F0AD01A
:103C90000268536823F48013416C0B435360436CF8
:103CA000B3F5801F0BD0836A13F0800F06D0026833
:103CB000536823F40023C16C0B43536070470268C0
:103CC000536823F4C003816C0B435360EBE72DE989
:103CD000F84305460F4616469946DDF820802B68C6
:103CE000DC6937EA04040CBF01240024B44257D134
:103CF000B8F1FF3FF3D0FDF7A1FBA0EB0900404571
:103D00002FD8B8F1000F2CD02B681A6812F0040FCE
:103D1000E5D0DA6912F4006FE1D04FF400621A6264
:103D20002A6852E8003F23F4D07342E800310029AA
:103D3000F6D12A6802F1080353E8003F23F001039B
:103D4000083242E800310029F3D12023C5F8883039
:103D5000C5F88C30C5F89030002385F884300320F6
:103D60001FE02A6852E8003F23F4D07342E8003194
:103D70000029F6D12A6802F1080353E8003F23F036
:103D80000103083242E800310029F3D12023C5F8AD
:103D90008830C5F88C30002385F88430032000E09B
:103DA0000020BDE8F88330B583B004460023C0F896
:103DB0009030FDF743FB05462268126812F0080FA9
:103DC00010D123681B6813F0040F19D12023C4F805
:103DD0008830C4F88C300020E066206784F88400C6
:103DE00003B030BD6FF07E430093034600224FF4D2
:103DF00000112046FFF76BFF0028E2D00320EFE719
:103E00006FF07E4300932B4600224FF48001204642
:103E1000FFF75DFF0028D9D00320E1E778B310B5A4
:103E20000446D0F888300BB32423C4F888302268C5
:103E3000136823F0010313602046FFF7B5FD012846
:103E400013D0A36ABBB92268536823F4904353602C
:103E50002268936823F02A0393602268136843F072
:103E6000010313602046FFF79EFF10BD80F88430E9
:103E7000FDF70AFAD8E72046FFF7C4FEE3E7012082
:103E800070470000436E2BB90123A0F86A30A0F8F8
:103E90006830704730B403689A68C2F34262996828
:103EA000490F094D6B5CDB00084C615C93FBF1F33F
:103EB000A0F86A30AB5CDB00A25C93FBF2F3A0F8E5
:103EC000683030BC704700BF906C0008886C0008F8
:103ED00090F88430012B18D0012380F884302423FB
:103EE000C0F8883003681A68196821F00101196068
:103EF00022F000520023436601680A602022C0F8C5
:103F0000882080F88430184670470220704738B502
:103F100090F88430012B1DD00446012380F88430B2
:103F20002423C0F8883003681D681A6822F0010253
:103F30001A600268936823F0604319439160FFF7A9
:103F4000A1FF23681D602023C4F88830002084F876
:103F5000840038BD0220FCE738B590F88430012B8E
:103F60001DD00446012380F884302423C0F8883013
:103F700003681D681A6822F001021A6002689368DB
:103F800023F0606319439160FFF77CFF23681D6095
:103F90002023C4F88830002084F8840038BD022033
:103FA000FCE7B0F8403023F47E535B045B0CA0F8D0
:103FB00040300020704784B0844601A880E80E009D
:103FC0000123ACF840300020ACF84000ACF84400CD
:103FD000ACF8500004B0704708B501F022FF10B1F2
:103FE00002684068904708BDEFF305832BB9064B84
:103FF000186828B901221A6070476FF005007047F1
:104000004FF0FF30704700BF64070020EFF30583D7
:1040100073B90A4B1B68012B0DD110B50024084B56
:10402000DC77064B02221A6001F06CF9204610BDC5
:104030006FF0050070474FF0FF30704764070020B5
:1040400000ED00E0F0B587B000240594EFF305849F
:1040500074BB68B322B31568936903B918235C1E57
:10406000372C49D8546814F0010F47D156696EB106
:104070004FEA960C94682CB1D7685B2F02D9176968
:1040800007B1C6B92CB14FF0FF340EE04FF0800CF1
:10409000F0E7D4688CB9146994B14FF0FF3404E0B0
:1040A0001546002418234FF0800C012C0AD0ACB127
:1040B000059807B0F0BD0124F7E74FF0FF34F4E7AF
:1040C0000024F2E7146992680292019400930B466F
:1040D0006246294601F0A6F80590E9E705AA019293
:1040E00000930B461FFA8CF2294601F0D6F80128FE
:1040F000DED000230593DBE70020DAE70020D8E7D5
:1041000008B5EFF3058333B908B9002008BD01F005
:104110005DFA0020FAE76FF00500F7E72DE9F043BC
:1041200083B0EFF30587002F43D106468946154635
:104130001C4600283FD0082000F0DCFA804600280A
:104140003BD006604560B9F1000F00D0012704B3F1
:104150002068A36813B1E2682B2A10D853B14FF03E
:10416000FF33DBB10024404600F042FB204603B0A1
:10417000BDE8F083E3687BB14FF0FF33F1E70193D3
:104180000F4B009343463A46012101F095FC04464B
:104190000CE020460023E4E70023E2E7084B00930D
:1041A00043463A46012101F06BFC0446002CDDD168
:1041B000D9E70024DAE70024D8E70446D6E700BFB1
:1041C000D93F0008EFF305836BB90A4670B100B51B
:1041D00083B00093042101F099FC012809D100204B
:1041E00003B05DF804FB6FF0050070476FF003004B
:1041F00070476FF00200F3E7034B0360034B0B6063
:1042000080231360704700BF0807002008050020C6
:10421000034B0360034B0B604FF4807313607047D4
:10422000680B00206807002000F1080343604FF08E
:10423000FF328260C3600361002303607047002384
:104240000361704743684B609A688A605160996067
:104250000861036801330360704730B40D68B5F13D
:10426000FF3F11D000F108031C465B681A68AA42A0
:10427000FAD963684B6099608C606160086103687B
:104280000133036030BC70470469F2E70369416899
:1042900082688A60416851605A68824206D0002272
:1042A00002611A68013A1A601868704782685A6099
:1042B000F5E7000082B0002301930D4B1B68B3F1BA
:1042C000FF3F08D04FF0500383F31188BFF36F8F87
:1042D000BFF34F8FFEE74FF0500383F31188BFF316
:1042E0006F8FBFF34F8F019B002BFCD002B0704744
:1042F0001800002008480068006880F308884FF024
:10430000000080F3148862B661B6BFF34F8FBFF32D
:104310006F8F00DF00BF000008ED00E0DFF80C0049
:10432000016841F4700101607047000088ED00E011
:104330004FF0807340F8043C21F0010140F8081C64
:10434000054B40F80C3C40F8202C6FF0020340F87D
:10435000243C4438704700BFB5420008000000000C
:10436000074B19680868B0E8F04F80F30988BFF37D
:104370006F8F4FF0000080F311887047AFF300801B
:104380002C1800204FF0500383F31188BFF36F8F78
:10439000BFF34F8F0B4A136801331360012B00D01A
:1043A00070474FF0E023D3F8043D13F0FF0FF7D030
:1043B0004FF0500383F31188BFF36F8FBFF34F8F1C
:1043C000FEE700BF18000020094B1B6843B94FF0FF
:1043D000500383F31188BFF36F8FBFF34F8FFEE756
:1043E000013B034A13600BB983F31188704700BF88
:1043F0001800002000000000000000000000000085
:10440000EFF30980BFF36F8F154B1A681EF0100F82
:1044100008BF20ED108A20E9F04F10602DE9090057
:104420004FF0500080F31188BFF34F8FBFF36F8FB1
:1044300001F0F2F84FF0000080F3118809BC196810
:104440000868B0E8F04F1EF0100F08BFB0EC108AFB
:1044500080F30988BFF36F8F704700BFAFF3008010
:104460002C18002008B54FF0500383F31188BFF3D8
:104470006F8FBFF34F8F00F0A1FF28B14FF0E02303
:104480004FF08052C3F8042D002383F3118808BD38
:104490004FF0E022002313619361054B1B6805492F
:1044A000A1FB03139B09013B536107231361704771
:1044B0000C000020D34D62104FF0E023D3F8002D04
:1044C0003D4B9A421CD04FF0E023D3F8002D3B4BDC
:1044D0009A421ED030B583B0394B1A78D2B20192CD
:1044E000FF221A701B78DBB28DF803309DF8033081
:1044F00003F05003334A1370334B07221A601BE05A
:104500004FF0500383F31188BFF36F8FBFF34F8FCA
:10451000FEE74FF0500383F31188BFF36F8FBFF3B3
:104520004F8FFEE7284A1368013B13609DF8033064
:104530005B00DBB28DF803309DF8033013F0800F81
:10454000F0D1214B1B68032B08D04FF0500383F3AD
:104550001188BFF36F8FBFF34F8FFEE71B021A4A1C
:10456000136003F4E0631360019BDBB2144A137021
:104570004FF0E024D4F8203D43F47003C4F8203D0C
:10458000D4F8203D43F07043C4F8203DFFF780FF8E
:1045900000250E4B1D60FFF7C1FED4F8343F43F0F9
:1045A0004043C4F8343FFFF7A5FE01F035F8FFF7AC
:1045B00081FE284603B030BD71C20F4170C20F4169
:1045C00000E400E0C40B0020C80B0020180000200D
:1045D000EFF305830F2B0FD9114A9B5CDBB2114A15
:1045E00012789A4208D94FF0500383F31188BFF331
:1045F0006F8FBFF34F8FFEE74FF0E023D3F80C3DF2
:1046000003F4E063084A1268934208D94FF050035C
:1046100083F31188BFF36F8FBFF34F8FFEE77047AF
:10462000F0E300E0C40B0020C80B0020124A12F097
:10463000070F1ED0D11D21F00701C1F540631344BF
:104640000A460E480260002141601344083B23F0F3
:1046500007030B48036059601960991A5160136091
:10466000084B1960084B1960084B4FF000421A6064
:1046700070474FF44063E4E7D00B0020E4170020BC
:10468000CC0B0020D8170020D4170020D017002012
:10469000164B1A461B688342FBD3516802EB010C90
:1046A000844509D0416800EB010C634509D00360E3
:1046B000904219D010607047406801445160104624
:1046C000F0E710B40A4C2468A3420BD05B6819448D
:1046D000416013681B680360904200D010605DF871
:1046E000044B70470460F7E7704700BFE4170020F1
:1046F000CC0B002070B5054600F052FE364B1B680F
:10470000A3B1364B1B681D424ED135B1083515F0AB
:10471000070F02D025F007050835002D46D0304B95
:104720001B68AB4251D32F4A146804E0FFF77EFFA9
:10473000E7E722461C466368AB4202D22368002B9F
:10474000F7D1254B1B68A34241D016680836236871
:10475000136063685B1B102B10D9601910F0070FF2
:1047600008D04FF0500383F31188BFF36F8FBFF36E
:104770004F8FFEE743606560FFF78AFF6268184964
:104780000B689B1A0B60184909688B4201D21649C5
:104790000B60124B1B681343636000232360134AB2
:1047A00013680133136002E0002600E0002600F0E9
:1047B00091FE16F0070F0CD04FF0500383F31188D1
:1047C000BFF36F8FBFF34F8FFEE70026EFE70026A2
:1047D000EDE7304670BD00BFCC0B0020D0170020A5
:1047E000D4170020E4170020D8170020DC17002081
:1047F000002834D038B50446A0F1080550F8043C30
:10480000174A1268134208D14FF0500383F31188FE
:10481000BFF36F8FBFF34F8FFEE750F8081C41B115
:104820004FF0500383F31188BFF36F8FBFF34F8FA7
:10483000FEE723EA020340F8043C00F0B1FD54F81F
:10484000041C084A13680B4413602846FFF720FF36
:10485000054A13680133136000F03CFE38BD704711
:10486000D0170020D4170020E017002010B5044610
:10487000FFF788FDA26BE36B9A4204D00024FFF798
:10488000A3FD204610BD0124F9E710B50446FFF74B
:1048900079FDA36B23B90124FFF796FD204610BDD7
:1048A0000024F9E770B504461546866B026C5AB9C8
:1048B00003681BB100200136A66370BD806800F05C
:1048C000D3FF0023A360F6E76DB9406801F044FB15
:1048D000226C636813446360A268934219D323680F
:1048E00063602846E7E7C06801F036FB226C51425E
:1048F000E3689B1AE3602268934202D2A3680B44E8
:10490000E360022D01D00020D5E726B1013E002052
:10491000D1E72846CFE70020CDE70346026C6AB115
:1049200010B50846D9681144D9609C68A14201D3EA
:104930001968D960D96801F00FFB10BD704738B510
:104940000546FFF71FFD95F8454064B201E0013CC4
:1049500064B2002C0ADD6B6A43B105F1240000F05B
:10496000D9FE0028F3D000F069FFF0E7FF2385F8B7
:104970004530FFF729FDFFF705FD95F8444064B287
:1049800001E0013C64B2002C0ADD2B6943B105F162
:10499000100000F0BFFE0028F3D000F04FFFF0E75A
:1049A000FF2385F84430FFF70FFD38BD38B5E0B17F
:1049B0000D460446FFF7E6FC2368E26B216C01FB21
:1049C0000230A0600020A0636360013A02FB013363
:1049D000E360FF2384F8443084F84530FDB923694F
:1049E00063B9FFF7F1FC012038BD4FF0500383F3AA
:1049F0001188BFF36F8FBFF34F8FFEE704F11000F4
:104A000000F088FE0028ECD04FF0E0234FF08052F9
:104A1000C3F8042DBFF34F8FBFF36F8FE1E704F1AD
:104A20001000FFF701FC04F12400FFF7FDFBD8E7BD
:104A300038B51D46049C0B4649B92460E0632364E5
:104A400001212046FFF7B2FF84F84C5038BD2260A8
:104A5000F4E740B94FF0500383F31188BFF36F8F31
:104A6000BFF34F8FFEE710B584B01C46844653B1A8
:104A700092B189B94FF0500383F31188BFF36F8F60
:104A8000BFF34F8FFEE74FF0500383F31188BFF35E
:104A90006F8FBFF34F8FFEE76AB150230393039BE1
:104AA000502B13D04FF0500383F31188BFF36F8F57
:104AB000BFF34F8FFEE70029EFD04FF0500383F391
:104AC0001188BFF36F8FBFF34F8FFEE7039B012366
:104AD00084F8463000949DF818306046FFF7A8FF30
:104AE000204604B010BDF0B585B0019288B10F46E4
:104AF0001D460446B1B1022D20D1E36B012B1DD020
:104B00004FF0500383F31188BFF36F8FBFF34F8FC4
:104B1000FEE74FF0500383F31188BFF36F8FBFF3AD
:104B20004F8FFEE7036C002BE5D04FF0500383F36B
:104B30001188BFF36F8FBFF34F8FFEE700F084FE45
:104B4000064658B9019B002B48D04FF0500383F321
:104B50001188BFF36F8FBFF34F8FFEE700263DE054
:104B60002A4639462046FFF79DFE636A7BB948B165
:104B70004FF0E0234FF08052C3F8042DBFF34F8F66
:104B8000BFF36F8FFFF720FC012005B0F0BD04F1EB
:104B9000240000F0BFFD0028F4D04FF0E0234FF0D8
:104BA0008052C3F8042DBFF34F8FBFF36F8FE9E737
:104BB000FFF70AFC0020E8E702A800F0F1FD01265B
:104BC00019E0002384F8443021E0002384F84530C4
:104BD00023E02046FFF7B3FE00F07CFCFFF7D2FB9A
:104BE000A26BE36B9A42BBD3022DB9D0019B002B81
:104BF000DED0002EE0D0FFF7E7FB00F0D1FBFFF79F
:104C0000C1FB94F8442052B2B2F1FF3FD9D094F8DE
:104C1000452052B2B2F1FF3FD7D0FFF7D5FB01A933
:104C200002A800F0C9FDD8B92046FFF71FFE0028F2
:104C3000CFD0019904F1100000F038FD2046FFF7B5
:104C40007EFE00F047FC0028C8D14FF0E0234FF073
:104C50008052C3F8042DBFF34F8FBFF36F8FBDE7B2
:104C60002046FFF76CFE00F035FC00208DE72DE9B3
:104C7000F84390B10F4616461C460546B1B1022CCA
:104C800020D1EB6B012B1DD04FF0500383F3118823
:104C9000BFF36F8FBFF34F8FFEE74FF0500383F3E7
:104CA0001188BFF36F8FBFF34F8FFEE7036C002BAC
:104CB000E5D04FF0500383F31188BFF36F8FBFF33C
:104CC0004F8FFEE7FFF784FCEFF311884FF050039E
:104CD00083F31188BFF36F8FBFF34F8FAA6BEB6B1A
:104CE0009A4206D3022C04D0002088F31188BDE834
:104CF000F88395F845904FFA89F9AB6B224639460F
:104D00002846FFF7CFFDB9F1FF3F06D009F10103B7
:104D10005BB285F845300120E7E76B6A0BB90120EB
:104D2000E3E705F1240000F0F5FC18B126B10120FD
:104D30003060DAE70120D8E70120D6E7F0B585B08A
:104D4000019290B10F460446C1B100F07DFD0646C8
:104D500000BB019B002B5ED04FF0500383F3118802
:104D6000BFF36F8FBFF34F8FFEE74FF0500383F316
:104D70001188BFF36F8FBFF34F8FFEE7036C002BDB
:104D8000E3D04FF0500383F31188BFF36F8FBFF36D
:104D90004F8FFEE700263EE039462046FFF7BDFD77
:104DA000013DA563236923B9FFF70EFB012005B080
:104DB000F0BD04F1100000F0ADFC0028F4D04FF07D
:104DC000E0234FF08052C3F8042DBFF34F8FBFF3A1
:104DD0006F8FE9E7FFF7F8FA0020E8E702A800F094
:104DE000DFFC012621E0002384F8443029E0002381
:104DF00084F845302BE02046FFF7A1FD00F06AFB68
:104E000009E02046FFF79BFD00F064FB2046FFF71A
:104E10003CFD00283FD1FFF7B5FAA56B002DBBD1B3
:104E2000019B002BD6D0002ED8D0FFF7CDFA00F092
:104E3000B7FAFFF7A7FA94F844305BB2B3F1FF3F3B
:104E4000D1D094F845305BB2B3F1FF3FCFD0FFF73C
:104E5000BBFA01A902A800F0AFFC0028D1D120467E
:104E6000FFF713FD0028C6D0019904F1240000F0DB
:104E70001DFC2046FFF763FD00F02CFB0028CAD183
:104E80004FF0E0234FF08052C3F8042DBFF34F8F53
:104E9000BFF36F8FBFE7002089E700000023072BD7
:104EA0000CD8074A52F833200AB10133F7E7044A15
:104EB00042F8331002EBC30250607047704700BFE6
:104EC000EC17002070B504460D461646FFF75AFA57
:104ED00094F844305BB2B3F1FF3F0DD094F8453005
:104EE0005BB2B3F1FF3F0BD0FFF76EFAA36B5BB180
:104EF0002046FFF724FD70BD002384F84430EDE721
:104F0000002384F84530EFE73246294604F12400B7
:104F100000F0E4FBECE70000084B1B681B6823B9BA
:104F2000074B4FF0FF321A607047044B1B68DB6879
:104F3000DB685A68024B1A60704700BF30180020C7
:104F4000D81C00202DE9F04780460D4617469946AB
:104F5000089EDDF824A00A9C9200A521206B00F099
:104F6000CDFF236B07F18042013A03EB820727F064
:104F70000707A5B34FF0000CBCF10F0F09D815F8C7
:104F80000C3004EB0C0282F8343013B10CF1010C3C
:104F9000F2E7002384F84330372E00D93726E66243
:104FA000E66400252565201DFFF749F904F1180086
:104FB000FFF745F92461C6F13806A66164626565AC
:104FC00084F858504A4641463846FFF7B1F9206008
:104FD000BAF1000F01D0CAF80040BDE8F087002305
:104FE00084F83430D8E7000038B5002407E004EB3B
:104FF000840293000E481844FFF716F90134372C49
:10500000F5D90C4D2846FFF70FF90B4C2046FFF75A
:105010000BF90A48FFF708F90948FFF705F90948AD
:10502000FFF702F9084B1D60084B1C6038BD00BF3C
:1050300038180020AC1C0020C01C0020E41C0020FC
:10504000101D0020FC1C0020301800203418002007
:1050500010B50446FFF796F9224A1368013313602E
:10506000214B1B685BB1214B1B686BB91E4B1B6846
:10507000DA6AE36A9A4207D81B4B1C6004E01A4BB9
:105080001C601368012B29D0194A1368013313607F
:105090006364E06A174B1B68984201D9154B18608E
:1050A00000EB8000211D144B03EB8000FFF7CAF8D2
:1050B000FFF78AF90D4B1B687BB10B4B1B68DA6A53
:1050C000E36A9A4209D24FF0E0234FF08052C3F8CE
:1050D000042DBFF34F8FBFF36F8F10BDFFF784FF19
:1050E000D2E700BF981C00202C180020F81C0020DC
:1050F000A41C0020A81C00203818002010B504466D
:1051000090F8593063B1012B11D0022B0ED04FF023
:10511000500383F31188BFF36F8FBFF34F8FFEE708
:10512000006BFFF765FB2046FFF762FB10BDFFF742
:105130005FFBFBE70F4B1B68D3B110B5FFF722F9FC
:105140000D4BDB68DC68201DFFF7A0F80B4A1368E5
:10515000013B1360074A1368013B1360FFF734F902
:105160002046FFF7CBFF034B1B68002BE6D110BD99
:10517000704700BF9C1C0020101D0020981C0020C0
:1051800008B5FFF7D7FF074B1B68012BF9D94FF084
:10519000E0234FF08052C3F8042DBFF34F8FBFF3CD
:1051A0006F8FEEE73818002070B504460D46174B98
:1051B0001E68174B18680430FFF768F8B4F1FF3F1A
:1051C0000DD03444124B1B685C60A64210D9114BC1
:1051D00018680F4B19680431FFF73FF870BD002DB8
:1051E000EFD00B4B196804310B48FFF72BF8F5E7AC
:1051F0000A4B1868064B19680431FFF72EF8084B64
:105200001B68A342EAD9064B1C60E7E7241D002077
:105210002C18002034180020FC1C0020301800201E
:10522000D81C002030B587B00B9C7CB10C9DB5B16B
:105230005C250495049D5C2D1AD04FF0500383F338
:105240001188BFF36F8FBFF34F8FFEE74FF050030E
:1052500083F31188BFF36F8FBFF34F8FFEE74FF0DB
:10526000500383F31188BFF36F8FBFF34F8FFEE7B7
:10527000049D0C9D2C63022485F85940002403945E
:10528000029505AC01940A9C0094FFF75BFE0C9814
:10529000FFF7DEFE059807B030BD2DE9F04385B07D
:1052A0000746884614461E469000FFF723FA00B3CF
:1052B00081465C20FFF71EFA0546B0B1C0F8309079
:1052C000E5B1002385F85930039302950D9B0193B6
:1052D0000C9B00933346224641463846FFF732FE88
:1052E0002846FFF7B5FE012005E04846FFF780FAA3
:1052F000E6E74FF0FF3005B0BDE8F0834FF0FF3038
:10530000F9E7000010B588B000240594069407AAB8
:1053100006A905A8FEF770FF059B0293069B019363
:1053200000942346079A18491848FFF77BFF184B4B
:10533000186040B100F072FB012806D0B0F1FF3FC9
:1053400018D008B010BD0020F6E74FF0500383F3EB
:105350001188BFF36F8FBFF34F8F0E4B4FF0FF32AB
:105360001A600D4B01221A600C4B00221A60FFF7E5
:10537000A3F8E6E74FF0500383F31188BFF36F8F74
:10538000BFF34F8FFEE700BF986C00088151000803
:10539000D41C0020D81C0020F81C0020241D002054
:1053A000024A136801331360704700BFA01C00203D
:1053B000014B1868704700BF241D0020F8B53A4B18
:1053C0001B68002B69D1394B1D6801351D60C5B9BB
:1053D000374B1B681B6843B14FF0500383F31188B0
:1053E000BFF36F8FBFF34F8FFEE7314A1168314B28
:1053F000186810601960304A136801331360FFF7B2
:105400008BFD2E4B1B68AB423DD900272C4B1B68F4
:10541000DB6A03EB83039A002A4B9B58012B00D9CC
:105420000127294B1B68002B3CD001273AE00127BC
:105430001F4B1B681B6843B31D4B1B68DB68DC6894
:1054400063689D4226D3261D3046FEF71FFFA36AE0
:105450001BB104F11800FEF719FFE36A1B4A12683A
:10546000934201D9194A136003EB83039A00314632
:1054700014481044FEF7E6FEE26A114B1B68DB6A33
:105480009A42D4D2D4E70027D2E70C4B4FF0FF3238
:105490001A60BBE7094A1360B8E70D4A1368013385
:1054A000136000273846F8BDA01C0020241D0020F2
:1054B0003018002034180020DC1C0020D81C0020EC
:1054C0002C18002038180020281D0020A81C0020BF
:1054D000E01C002038B5354B1B6843B94FF0500332
:1054E00083F31188BFF36F8FBFF34F8FFEE7FEF793
:1054F00049FF2E4B1A68013A1A601B68002B4FD1E6
:105500002B4B1B680BB900244BE00024294B1B6874
:105510001BB3284BDB68DC6804F11800FEF7B6FE0D
:10552000251D2846FEF7B2FEE06A234B1B68984211
:1055300001D9214B186000EB800029461F4B03EB7B
:105540008000FEF77FFEE26A1D4B1B68DB6A9A4211
:10555000DCD31C4B01221A60D8E70CB1FFF7DCFC4E
:10556000194B1C6884B9174B1C68D4B14FF0E02369
:105570004FF08052C3F8042DBFF34F8FBFF36F8FEE
:1055800001240EE0013C07D0FFF718FF0028F9D0F6
:105590000C4B01221A60F5E70B4B00221A60E2E780
:1055A0000024FEF711FF204638BD00BFA01C0020DC
:1055B000981C0020E41C0020A81C002038180020A3
:1055C0002C180020281D0020E01C002010B5A8B1D8
:1055D0000446104B1B6843B14FF0500383F311880E
:1055E000BFF36F8FBFF34F8FFEE7FFF7D9FE0021A8
:1055F0002046FFF7D9FDFFF76DFF48B94FF0E023D4
:105600004FF08052C3F8042DBFF34F8FBFF36F8F5D
:1056100010BD00BFA01C00201F4B1B681BB11F4BFF
:1056200001221A6070471D4B00221A601C4B1B6838
:1056300003EB83018A001B498A585AB90BB1013B1D
:10564000F6E74FF0500383F31188BFF36F8FBFF37A
:105650004F8FFEE703EB830082000A4450684068E6
:10566000506003EB830C4FEA8C02083211448842ED
:105670000BD003EB830291000A4A0A445268D168B6
:10568000094A1160064A13607047406862469100FB
:10569000044A0A445060ECE7A01C0020281D0020AA
:1056A000A81C0020381800202C18002058B110B574
:1056B0000C46094A11681831FEF7CFFD012120463A
:1056C000FFF772FD10BD4FF0500383F31188BFF355
:1056D0006F8FBFF34F8FFEE72C18002038B570B1E5
:1056E0000D4614460A4A11681831FEF7ABFD0CB19D
:1056F0004FF0FF3521462846FFF756FD38BD4FF0E5
:10570000500383F31188BFF36F8FBFF34F8FFEE712
:105710002C18002038B5C368DC6824B304F11805E0
:105720002846FEF7B3FD184B1B682BBB251D2846EA
:10573000FEF7ACFDE06A154B1B68984201D9134B8C
:10574000186000EB80002946114B03EB8000FEF748
:1057500079FDE26A0F4B1B68DB6A9A4211D901207E
:105760000D4B186038BD4FF0500383F31188BFF321
:105770006F8FBFF34F8FFEE729460848FEF762FDA3
:10578000E7E70020EEE700BFA01C0020A81C0020D7
:10579000381800202C180020281D0020E41C0020B0
:1057A000034B1B680360034B1B684360704700BFDB
:1057B000DC1C0020241D0020F8B5C8B10C460546AD
:1057C000F9B1FEF7DFFD1B4B19686B68C81A226838
:1057D000B2F1FF3F26D0184E36682F68B74201D08D
:1057E0008B4224D9824215D80023236001241AE079
:1057F0004FF0500383F31188BFF36F8FBFF34F8FC8
:10580000FEE74FF0500383F31188BFF36F8FBFF3B0
:105810004F8FFEE75B1A134423602846FFF7C0FF53
:10582000002400E00024FEF7CFFD2046F8BD01244F
:10583000F9E700BF241D0020DC1C0020014B0122E1
:105840001A607047281D0020054B1B6833B1054BBB
:105850001B680BB100207047022070470120704781
:10586000F81C0020A01C002000283BD038B50446BE
:105870001E4B1B68834208D04FF0500383F31188FE
:10588000BFF36F8FBFF34F8FFEE7036D43B94FF048
:10589000500383F31188BFF36F8FBFF34F8FFEE781
:1058A000013B0365C16AC26C91421DD00BB100205F
:1058B00038BD051D2846FEF7E9FCE06CE062C0F14A
:1058C0003803A3610A4B1B68984201D9084B186042
:1058D00000EB80002946074B03EB8000FEF7B2FC8B
:1058E0000120E5E7002070470020E1E72C180020A8
:1058F000A81C002038180020064B1A6813682BB922
:105900000123036023B9D368186870470023F8E7C0
:10591000002070472C1D002008B5416000619142B5
:105920000CD8D21A83699A4201D3012008BD011D07
:10593000094B1868FEF791FC0020F7E79A4201D264
:10594000994206D2011D054B1868FEF786FC00201F
:10595000ECE70120EAE700BF301D00202C1D0020ED
:1059600030B583B0FEF70EFD114B1B681BB1FEF77F
:105970002BFD03B030BD0F4D2846FEF755FC0E4CF5
:105980002046FEF751FC0D4B1D600D4B1C600023A3
:1059900000930C4B0C4A10210A20FFF75AF8044BD5
:1059A00018600028E3D00949FFF778FADFE700BF65
:1059B000501E0020D41D0020E81D00202C1D0020BA
:1059C000301D0020001E0020341D0020A06C0008A7
:1059D0002DE9F041079F41B94FF0500383F311883F
:1059E000BFF36F8FBFF34F8FFEE7064614461D4689
:1059F00088468FB1FFF7B4FF3E60C7F81880FD619D
:105A0000069B3B62381DFEF71AFC2CB197F8283034
:105A100043F0040387F82830BDE8F08110B588B062
:105A2000FFF79EFF124B1B68CBB100240594069430
:105A300007AA06A905A8FEF7EBFB059B0293069BA8
:105A40000193022300932346079A0A490A48FFF765
:105A5000E9FB0A4B186010B1012008B010BD4FF0EF
:105A6000500383F31188BFF36F8FBFF34F8FFEE7AF
:105A7000501E0020A86C00080D5E0008541E002077
:105A80002DE9F04182B00446884617461D462C2079
:105A9000FEF730FE064658B1002380F8283001900A
:105AA000089B00932B463A4641462046FFF790FF5D
:105AB000304602B0BDE8F08110B584B084462C2099
:105AC000039003982C2808D04FF0500383F31188DB
:105AD000BFF36F8FBFF34F8FFEE70398079860B156
